:020000040800F2
:1000000000C00120B95B0008E5210008E7210008D5
:10001000E9210008EB210008ED21000800000000A4
:10002000000000000000000000000000EF210008B8
:10003000F121000800000000F3210008F52100086C
:10004000095C0008095C0008095C0008095C0008FC
:10005000095C0008095C0008095C0008095C0008EC
:10006000095C0008095C0008095C0008095C0008DC
:10007000095C0008095C0008095C0008095C0008CC
:10008000095C0008095C0008095C00080000000029
:10009000000000000000000000000000095C0008F3
:1000A000095C0008095C0008095C0008095C00089C
:1000B000095C0008FD210008095C0008095C0008D3
:1000C000095C0008095C0008095C0008095C00087C
:1000D000095C0008095C0008095C000800000000D9
:1000E000095C0008095C0008095C000800000000C9
:1000F000000000000000000000000000095C000893
:1001000000000000095C0008095C0008095C0008A8
:1001100000000000000000000000000000000000DF
:10012000095C0008095C0008095C0008095C00081B
:10013000095C000800000000000000000000000052
:10014000000000000000000000000000095C000842
:10015000095C0008095C0008095C0008095C0008EB
:10016000095C0008095C00080000000000000000B5
:10017000000000000000000000000000000000007F
:1001800000000000095C0008000000000000000002
:08019000095C0008095C00088D
:1001C0000348044B834202D0034B03B118477047E6
:1001D000CC000020CC0000200000000005480649AB
:1001E0000B1AD90F01EBA301491002D0034B03B145
:1001F00018477047CC000020CC0000200000000011
:1002000010B5064C237843B9FFF7DAFF044B13B15E
:100210000448AFF300800123237010BDCC00002000
:10022000000000000C5C000808B5044B1BB1044939
:100230000448AFF30080BDE80840CFE700000000AD
:10024000D00000200C5C0008014B1868704700BF0C
:100250000000002070B50D4E0D4D761BB61006D077
:100260000024013455F8043B9847A642F9D1094EC1
:10027000094D761B05F0CAFCB61006D000240134E7
:1002800055F8043B9847A642F9D170BDAC730008FD
:10029000AC730008B0730008AC73000800000000E5
:1002A00001F0FF01102A2BDB10F0070F08D010F827
:1002B000013B013A8B422DD010F0070F42B3F6D12B
:1002C000F0B441EA012141EA014122F007047FF044
:1002D00000070023F0E80256083C85EA010586EA9B
:1002E000010685FA47F5A3FA87F586FA47F6A5FAD7
:1002F00087F68EB9EED1F0BC01F0FF0102F00702E3
:1003000032B110F8013B013A83EA010313B1F8D18D
:100310000020704701387047002D06BF354603386E
:10032000073815F0010F07D1013015F4807F02BFA7
:10033000013015F4C03F0130F0BC0138704700BFF8
:10034000032A70B412D940EA0105AD0704460B46F2
:1003500020D11946204653F8045B54F8046BAE4292
:1003600018D1043A032A20461946F2D8541E72B115
:1003700003780A789A4208BF241806D00CE010F8D7
:10038000013F11F8012F934206D1A042F7D100207E
:1003900070BC7047541EEBE7981A70BC704700BFE2
:1003A000844641EA000313F003036DD1403A41D380
:1003B00051F8043B40F8043B51F8043B40F8043B3F
:1003C00051F8043B40F8043B51F8043B40F8043B2F
:1003D00051F8043B40F8043B51F8043B40F8043B1F
:1003E00051F8043B40F8043B51F8043B40F8043B0F
:1003F00051F8043B40F8043B51F8043B40F8043BFF
:1004000051F8043B40F8043B51F8043B40F8043BEE
:1004100051F8043B40F8043B51F8043B40F8043BDE
:1004200051F8043B40F8043B51F8043B40F8043BCE
:10043000403ABDD2303211D351F8043B40F8043B6E
:1004400051F8043B40F8043B51F8043B40F8043BAE
:1004500051F8043B40F8043B103AEDD20C3205D37E
:1004600051F8043B40F8043B043AF9D2043208D076
:10047000D2071CBF11F8013B00F8013B01D30B88E8
:1004800003806046704700BF082A13D38B078DD0C6
:1004900010F003038AD0C3F10403D21ADB071CBF98
:1004A00011F8013B00F8013B80D331F8023B20F802
:1004B000023B7BE7043AD9D3013A11F8013B00F83B
:1004C000013BF9D20B7803704B7843708B788370C3
:1004D00060467047F0B4860746D0541E002A3CD0D0
:1004E000CAB2034602E014F1FF3436D303F8012BFD
:1004F0009D07F8D1032C29D9CDB245EA05250F2C4B
:1005000045EA054533D9A4F11006360903F1200761
:1005100007EB061703F1100242E9045542E90255C0
:100520001032BA42F8D1721C14F00C0F03EB021215
:1005300004F00F0613D0331F23F0030304331344D6
:1005400042F8045B9342FBD106F003042CB1C9B21C
:100550001C4403F8011B9C42FBD1F0BC704734469D
:100560001346002CF3D1F8E714460346C2E71A46B7
:100570002646E0E708B430B5002A9CB0044635DBD7
:100580004FF4027302910691ADF8143020A918D0EF
:10059000013A0B460492079201911F9A4FF6FF759C
:1005A00002A9ADF8165000F0F7FD421C01DA8B23CA
:1005B0002360029B00221A701CB0BDE8304001B0DD
:1005C00070470B460492079201914FF6FF751F9AF0
:1005D000ADF8165002A900F0DFFD431C01DA8B23B1
:1005E00023601CB0BDE8304001B070478B22026030
:1005F0004FF0FF30F5E700BF0CB430B5204B0029B9
:100600009DB01C6837DB4FF4027302900690ADF882
:10061000143021A819D001390346209A049107917A
:1006200001904FF6FF7502A92046ADF8165000F074
:10063000B3FD421C01DA8B232360029B00221A7057
:100640001DB0BDE8304002B07047034604910791E9
:1006500001904FF6FF75209AADF8165002A920467A
:1006600000F09AFD431C01DA8B2323601DB0BDE826
:10067000304002B070478B2323604FF0FF30F5E726
:10068000000000200000000000000000000000004A
:10069000000000000000000000000000000000005A
:1006A000A2EB0300704700BF02780B78012A28BF35
:1006B0009A42F5D16DE9044540EA0104CDE90267AB
:1006C0006FF0000C4FEA447212B380EA010414F098
:1006D000070F6AD100F0070420F0070004F00305BB
:1006E00021F007014FEAC505F0E8042314F0040FD8
:1006F000F1E804670CFA05F462EA040266EA04060B
:100700000AD063EA0403624667EA0407664603E028
:10071000F0E80423F1E8046782FA4CF582EA060463
:10072000A4FA8CF46CBB83FA4CF583EA0705A5FAAE
:100730008CF595B950E9022351E9026782FA4CF52C
:1007400082EA0604A4FA8CF483FA4CF583EA0705DE
:10075000A5FA8CF52543DBD09CB92DBAB5FA85F402
:1007600024F0070427FA04F1DDE9026723FA04F311
:1007700003F0FF0001F0FF01FDE80445A0EB0100DC
:10078000704724BAB4FA84F424F0070426FA04F17A
:10079000DDE9026722FA04F202F0FF0001F0FF0136
:1007A000FDE80445A0EB0100704714F0030F3CD1B5
:1007B00010F0030428D150F8082B51F8083B82FAB6
:1007C0004CF582EA0305A5FA8CF55DB950F8042CC6
:1007D00051F8043C82FA4CF582EA0305A5FA8CF53F
:1007E000002DE8D02DBAB5FA85F424F0070423FAD9
:1007F00004F122FA04F202F0FF0001F0FF01FDE82B
:100800000445A0EB010070474FEAC40420F0030048
:1008100050F8082B21F0030151F8083B0CFA04F4BE
:1008200062EA040263EA0403C9E710F003041AD081
:10083000A1EB040120F00300E40750F8042B06D0DC
:100840000FD28B785FFAA2F4E41A06D12BB1CB78E1
:100850005FFAB2F4E41A00D11BB920465DF8104BE0
:10086000704701F1040150F8042BCC0721F003017B
:1008700051F8043B48D824D222F07F4482FA4CF548
:1008800094EA1325A5FA8CF50AD165B951F8043B11
:1008900084EA0204B4EB036F0ED150F8042BEBE7AB
:1008A0004FEA132355E035F07F454DD10878FDE838
:1008B0000445C0F1000070474FEA126203F0FF03E5
:1008C00047E002EA1C4482FA4CF594EA1345A5FA83
:1008D0008CF50AD165B951F8043B84EA0204B4EB03
:1008E000034F0CD150F8042BEBE74FEA134330E0F1
:1008F00015EA1C4528D10B884FEA124229E04FEA3D
:10090000124203EA1C4324E002F0FF0482FA4CF591
:1009100094EA1365A5FA8CF50AD165B951F8043B40
:1009200084EA0204B4EB032F09D150F8042BEBE75F
:100930004FEA13630DE015F0FF0F05D10B684FEA86
:10094000122223F07F4304E04FF00000FDE804454D
:10095000704712BA1BBA82FA4CF482EA0304A4FA72
:100960008CF5B5FA85F402FA04F203FA04F34FEABF
:100970001260FDE80445A0EB136070470000000022
:1009800090F800F06DE9024520F007016FF0000CCF
:1009900010F0070491F820F040F049804FF0000477
:1009A0006FF00700D1E9002391F840F000F1080052
:1009B00082FA4CF2A4FA8CF283FA4CF3A2FA8CF38A
:1009C0004BBBD1E9022382FA4CF200F10800A4FAF1
:1009D0008CF283FA4CF3A2FA8CF3E3B9D1E9042345
:1009E00082FA4CF200F10800A4FA8CF283FA4CF37C
:1009F000A2FA8CF37BB9D1E9062301F1200182FA36
:100A00004CF200F10800A4FA8CF283FA4CF3A2FA3B
:100A10008CF3002BC6D0002A04BF04301A4612BA49
:100A2000B2FA82F2FDE8024500EBD2007047D1E94C
:100A3000002304F00305C4F100004FEAC50514F0DB
:100A4000040F91F840F00CFA05F562EA05021CBFAC
:100A500063EA050362464FF00004A9E7002A46D086
:100A600040EA010313F00303F0B425D1032A23D98C
:100A700004680D68AC423CD1043A35D0A4F101358C
:100A800025EA040414F0803F2ED1071D0D1D0DE052
:100A900057F8043B0E68A3F10134B34224EA03047F
:100AA00027D1043A20D014F0803F1DD1032A2946D3
:100AB000384605F10405EBD803780D789D4202F124
:100AC000FF360ED186B17BB1044602E082180BD00E
:100AD00053B114F8013F11F8015FAB42A6EB0402D9
:100AE000F4D0581BF0BC70470020F0BC7047104693
:100AF000704703780D789D4202F1FF36E3D0F0E7AE
:100B00002DE9F04F0124254688461646AE462A4672
:100B1000ADF21C4D07461C4600214FF0FF3553181F
:100B20009C4206EB05000ED9805C16F803C0844594
:100B300080F0CC8019460122A3EB050E53189C428D
:100B400006EB0500F0D8CDF80CE04FF0010E724630
:100B500000214FF0FF3053189C4206EB000C0FD9D8
:100B60001CF802C016F80390E14540F2B680194621
:100B70000122A3EB000E53189C4206EB000CEFD8A9
:100B80006B1C01309842029328BFCDE9020E05ABE1
:100B90000DF2144243F8044F9342FBD1631E0093BD
:100BA000002C00F01681009B06AD721E981901956D
:100BB00012F8011FD34323443344824245F82130C5
:100BC000F6D1DDE902233046F118FFF7B9FB002822
:100BD00040F09680029B013B0593F31882468146C4
:100BE000049307EB090E009B019A1EF8033052F89C
:100BF0002330EBB1BAF1000F03D0039A934238BF10
:100C0000A31A99444FF0000AA8EB04034B45E8D21D
:100C100007EB080044F4006100F03EFE8044A8EBBE
:100C200004034B45DDD200200DF21C4DBDE8F08FD2
:100C3000029B534538BF53461D46009B9D4218D228
:100C400005EB0902715DB85C88423A4406EB050386
:100C500034D1A4F1020CB444C6F1010B05E013F841
:100C6000010F12F8011F884228D19C450BEB0305A8
:100C7000F5D1029B9A4580F0A980059B049A4B44CC
:100C80001178FA5C91423B4440F0A0800AEB0905E0
:100C90003D44049A05E012F8010D13F8011D884245
:100CA00003D1AB42A3EB0E0CF5D10AF1010AE245E8
:100CB0007DD8039B9944A4EB030AA5E7029BC3F1EB
:100CC00001039944A9444FF0000A9DE70CD04FF06E
:100CD000010E0D467246714421E70BD04FF0010E14
:100CE00008467246714436E7724512BF0132194612
:100CF000012214E7724512BF0132194601222AE788
:100D0000029AA31A934238BF1346511E013305932A
:100D1000731804910393002506EB020B07EB050EF5
:100D2000009A01991EF8023051F8233083B11D4416
:100D3000A8EB04039D42F1D907EB080044F40061DD
:100D400000F0AAFD8044A8EB04039D42E6D96AE7BF
:100D5000029B934217D2EA189BF80030B95C994283
:100D60003A4429D1A4F1020CB4445B46C6F101090E
:100D700005E013F8010F12F8011F88421ED16345E8
:100D800009EB030AF5D1049B5A1C10D0EA18039B07
:100D9000B95C1B7899423A4416D1039B05E013F8DD
:100DA000010D12F8011D88420ED1B342F7D17046F1
:100DB0000DF21C4DBDE8F08FDDF808A0029BC3F1D9
:100DC00001031D445544B3E7059BB0E7DDF808C0B7
:100DD0006BE706AB0193F4E62DE9F0410E46097886
:100DE00090B00446002958D07278002A00F08D8017
:100DF000B078002855D0F378002B00F08D8033793F
:100E0000002B5FD03046FFF7BBFD804640F40071F9
:100E1000204600F041FD804572D8B8F1FE0F00F287
:100E20009280A0EB0807402208F1010168462744A0
:100E3000FFF750FBB8F1000F10D0731E03EB08054D
:100E40005FFA88F013F8012F10A902F03F020A445C
:100E5000F11A0144AB4202F8401CF3D1013C10AA44
:100E600014F8083003F03F03134413F8403C1C44CB
:100E7000A74203D238E02C44A74235D314F80850D7
:100E800010AB05F03F051D4442463146204615F89B
:100E9000405CFFF755FA0028EDD1204610B0BDE8C0
:100EA000F081237842EA014253B3601C617800E08C
:100EB000204641EA0343441C11B39A424178F7D1DA
:100EC000441EEAE72278DAB1306800BA02E08342D1
:100ED00008D00C4642EA03236278611C002AF6D14E
:100EE00083420DD1033CD8E717F8083007EB080020
:100EF00033B14FF4006100F0CFFC0744A742ADD2FC
:100F00000024204610B0BDE8F08100F061FC0446EA
:100F1000204610B0BDE8F0811204237842EA016255
:100F200042EA0022002BEBD01B02601C617800E03B
:100F300020460B431B02441C0029E1D09A42417811
:100F4000F6D1841EA9E70146434620463246FFF704
:100F5000D7FD0446A1E700BF70B5141E9AB0054640
:100F60002BDB1A464FF4027300910491ADF80C305C
:100F700013D0013C4FF6FF761E9B02946946059400
:100F8000ADF80E6000F008F9421C01DA8B232B60EB
:100F9000009B00221A701AB070BD1E9B02944FF67F
:100FA000FF7669460594ADF80E6000F0F5F8431C35
:100FB00001DA8B232B601AB070BD8B2303604FF0D6
:100FC000FF30F8E710B5054C82B0009313460A468F
:100FD00001462068FFF7C0FF02B010BD00000020EE
:100FE0002DE9F0478E681D46AE420C460B68174649
:100FF00036D88046888910F4906F0ED13546184651
:101000002A46394600F06AFCA2682368961B2B44E6
:10101000A66023600020BDE8F087D1E9041606EB46
:101020004606A3EB010906EBD6766B1C76104B4403
:10103000B342324684BF1E463246430512D511469E
:10104000404600F009FD824600B34A462169FFF799
:10105000A7F9A38923F4906343F08003A38106E0FA
:101060002E46CCE7404600F05BFD824650B1A6EB31
:1010700009020AEB09036661C4F810A02360A260AC
:101080002E46BCE72169404600F090FC0C23C8F8CE
:101090000030A38943F04003A3814FF0FF30BAE74B
:1010A0002DE9F04F936883B09046002B6DD0176800
:1010B0008D6882460C460868083743E0A38913F41C
:1010C000906F2ED0D4E9041505EB4505A0EB010B7C
:1010D00005EBD5750BEB06006D100130A8422A46D2
:1010E00084BF05462A465B0536D51146504600F0BA
:1010F000B3FC00283AD05A4621690190FFF750F915
:10110000A289019B22F4906242F08002A281A5EBA9
:101110000B0203EB0B00656123612060A260354682
:10112000B3465A46494600F0D9FBD8F80830A268C1
:101130002068551B58449E1BA5602060C8F80860B5
:101140001EB3083757E90296AB46002EF9D0AE42DF
:10115000B4D23546B346E4E7504600F0E1FC03461E
:101160000028D4D12169504600F020FC0C23CAF895
:101170000030A389002243F040034FF0FF30A381E9
:10118000C8E9012203B0BDE8F08F0020C8F80400D0
:1011900003B0BDE8F08F00BF2DE9F04F90468A897B
:1011A0009FB014068B46029003D50A69002A00F00E
:1011B0000B81059330238DF8323098F800308E4E35
:1011C000002120220B918DF831200127002B00F007
:1011D0008480252B00F0F680454603E0252B00F0A7
:1011E000868025466B786C1C002BF7D1B4EB080A7F
:1011F00073D04246534659460298FFF7F1FE01303C
:101200006BD00B9B6A7853440B93002A65D0002364
:101210004FF0FF3201340693CDE908338DF85B308F
:101220001C93079205E0069A07FA03F313432C4632
:1012300006932546052215F8011B3046FFF730F8C6
:10124000AA46831B0028EED1069BD90644BF202264
:101250008DF85B2021781A0744BF2B228DF85B2084
:101260002A2948D1059A11680432002905927EDBAB
:1012700009916178A51C2E2956D0604C0322204686
:10128000FFF70EF8002868D0001B069B402404FAE4
:1012900000F00343069305F10108297858488DF8BA
:1012A00030100622FEF7FCFF002866D0554B002BBD
:1012B00056D005AB00935A46534B029806A9AFF39C
:1012C00000808146B9F1FF3F07D00B9B4B440B9345
:1012D00098F80030002B7FF47CAFBBF80C305B0635
:1012E00054BF0B984FF0FF301FB0BDE8F08FB4EB48
:1012F000080A8CD07DE7A1F13002092A88BFA246F6
:10130000B9D8099B01E02C460135297803EB83030A
:1013100002EB4303A1F13002092AAA46F3D92E2990
:1013200004F102050993A8D19AF801102A292ED1B7
:10133000059B9AF802101A6807920433002A059355
:101340000AF103050AF1020337DB2C4C0322204685
:101350009A46FEF7A5FF002896D1A84655469CE779
:10136000059B073323F0070308330593ADE7494294
:1013700043F00203099106937BE705AB00935A46BD
:10138000214B029806A900F0D7F881469AE7A1F10F
:1013900030020023092A079301D923E055466978D2
:1013A00003EB830302EB4303A1F13002092A05F1A9
:1013B000010AF3D9023507935FE74FF0FF329A46EF
:1013C00007925AE7444622E74021039300F044FB8A
:1013D000039BCBF80000CBF8100030B14022CBF8D3
:1013E0001420E6E6AA46013547E7029A0C2313606B
:1013F0004FF0FF3078E700BF707300087873000883
:101400007C73000800000000E10F00082DE9F047A0
:101410000C4691460A698968DDF820808A42B8BF87
:101420000A46C9F8002094F8431006461F4611B139
:101430000132C9F80020236899065CD5D9F800204C
:101440000232C9F80020236813F0060F19461DD197
:10145000E1688A1A002AD8BF194617DD04F1190A73
:10146000002505E0E368D9F800209B1AAB420CDDAB
:101470000123524639463046C047013005F1010587
:10148000F0D14FF0FF30BDE8F087216894F8433089
:10149000003318BF01238A060AD5E1185A1C3020F0
:1014A00081F84300224494F8451082F84310023337
:1014B00004F1430239463046C0470130E1D0236889
:1014C000A268216903F00603042B1DD08A4226DDA1
:1014D0004FF00009521A91441A34002501E04D459D
:1014E0001DDA0123224639463046C047013005F156
:1014F0000105F4D1C5E713F0060F13D094F843307B
:10150000003318BF0123D3E7D9F80000E3688A420B
:10151000A3EB000323EAE379DCDC002BDCDC002016
:10152000BDE8F087E168D9F800208A1A002AD8BF00
:10153000194693DCAAE700BF2DE9F0430C46097E6B
:1015400085B06E29064617460C98984604F1430E5E
:101550006DD039D9732900F0F68044D9752900F08F
:101560000481782940F0118178232268DFF858C27D
:1015700084F845300168150651F8043B016040F1DC
:10158000A180D10744BF42F020022260002B00F06E
:1015900093801022002184F843106068A060002826
:1015A000C0F2C880216821F004012160002B40F0C6
:1015B000A380002840F0C0807546082A00F0AC8067
:1015C000AEEB0503236141E0632900F0E5801AD802
:1015D000002938D0582940F0D88084F84510226876
:1015E000DFF8E8C1C6E76F2900F0BF80702940F03E
:1015F000CC802268DFF8D0C142F02002782322603C
:1016000084F84530B6E7642902D0692940F0BD80EE
:1016100022680368110603F1040557D519680560AF
:101620000B46002959DBDFF8A4C10A22B5E703689D
:10163000226861691D1D056015061B6802D45006ED
:1016400000F1BD801960002375462361CDF800804C
:101650003B4603AA21463046FFF7D8FE013020D092
:101660002A46236939463046C047013019D02268DE
:101670000398E368920719D51A1A002A16DD04F1B7
:101680001909002504E0E36803981A1AAA420DDD3F
:1016900001234A4639463046C047013005F101056D
:1016A000F1D14FF0FF3005B0BDE8F0839842B8BFEC
:1016B000184605B0BDE8F083226822F020022260BF
:1016C000102267E7500648BF9BB25AE75106A5D5DE
:1016D000B3F9003005601946A3E76168A1602D20C9
:1016E0000029C3F1000384F8430002DB22F0040266
:1016F0002260DFF8D8C00A22754600E00B46B3FB33
:10170000F2F102FB113093421CF8000005F8010DC4
:10171000F4D2082A7FF454AF2368DB077FF550AF7B
:10172000626823699A423FF74BAF302305F8013CCA
:10173000013D45E7002BDFD19CF8003084F84230B2
:1017400004F1420539E703686268191D01601D68EC
:1017500000212846FEF7A4FD002832D0401B60601F
:101760002061002384F8433070E72268036812F098
:10177000800F03F104051AD01B6805606F290CBFA8
:1017800008220A22DFF844C004E7012384F842104B
:10179000236104F14205E4E703681A68191D012377
:1017A000016004F1420584F842202361D9E712F078
:1017B000400F0DBF1B6805601B880560DEE71980C0
:1017C00041E76068CCE700BF9873000884730008A5
:1017D000C9B200F00303002935D07BB10378002B98
:1017E00057D0994252D0431C05E013F8012B002A30
:1017F0004DD08A424AD09A071846F6D170B441EAD1
:101800000126046846EA064601E050F8044F86EADD
:101810000405A5F10132A4F1013322EA050223EA0D
:101820000403134313F0803FEFD0037843B1994290
:1018300002D106E08B4204D010F8013F002BF9D111
:10184000184670BC70474BB10378FBB1431C02E0F3
:1018500002780133D2B199071846F9D10268A2F192
:10186000013323EA020313F0803F08D150F8042F1C
:10187000A2F1013323EA020313F0803FF6D003788C
:1018800023B110F8013F002BFBD170477047104681
:1018900070471846704700BFC9B10278CAB1431CEF
:1018A000014499421A4616D010B41478013334B169
:1018B00099421A4607D014780133002CF8D1101A37
:1018C0005DF8044B7047081A5DF8044B70470846F2
:1018D000704710467047081A704700BF8842F0B43E
:1018E0000DD98B1883420AD9841832B1224613F8D5
:1018F000014D02F8014D9942F9D1F0BC70470F2A11
:101900000ED80346541E002AF7D001340C44013B84
:1019100011F8012B03F8012FA142F9D1F0BC704757
:1019200040EA01039B073BD1A2F110073F0901F1F7
:10193000200606EB071601F1100300F1100453F81E
:10194000105C44F8105C53F80C5C44F80C5C53F8E1
:10195000085C44F8085C53F8045C44F8045C1033F9
:10196000B34204F11004EAD17B1C1B0112F00C0FEE
:10197000194402F00F05034415D0043DAD0803EBF4
:10198000850C1C1F0E4656F8047B44F8047F644502
:10199000F9D10135AD002B44294402F00302B1E72F
:1019A000541E0346B1E72A46ACE700BF00293CD0ED
:1019B00038B551F8043C0C1F002BB8BFE41805469D
:1019C00000F0E6F8234B1A682AB1A2420DD921682B
:1019D0006018824223D0626028461C60BDE838400F
:1019E00000F0D8B8A34203D81A465368002BF9D1A7
:1019F00011685018A04219D024D821686018834279
:101A000006D0636054602846BDE8384000F0C2B894
:101A1000D3E900030144636021605460F3E7D2E935
:101A20000002014462602160D6E7704720680144EB
:101A3000501883421160E6D1D3E90003014453609A
:101A40001160E0E70C232B602846BDE8384000F029
:101A5000A1B800BFE8000020F8B5CD1C25F00305B3
:101A600008350C2D38BF0C25002D064633DBA94266
:101A700031D82A4F00F08CF83A6852B113685B1BDA
:101A800004D43FE023685B1B29D522465468002C10
:101A9000F8D1796800293BD02946304600F066F835
:101AA000431C28D0C41C24F00304A04205D0211AF2
:101AB000304600F05BF801301DD02560304600F064
:101AC00069F804F10B0020F00700231DC21A01D0B1
:101AD0001B1AA350F8BD0C2232600020F8BD0B2B5E
:101AE00005D8A242636811D05360E7E7144623602B
:101AF0001C442560E2E70C233046336000F04AF8CE
:101B00000020F8BD0B2BF1D8536814463B60D5E795
:101B1000304600F02BF87860BEE700BFE8000020F8
:101B200009B3F8B51446CAB106460D4600F034F8BC
:101B3000A04202D32F463846F8BD21463046FFF773
:101B40008BFF07460028F6D022462946FEF728FCE0
:101B500030462946FFF72AFF3846F8BD2746FFF7EB
:101B600025FF3846F8BD1146FFF776BF38B5074C5C
:101B7000002305460846236000F0BCFC431C00D04F
:101B800038BD2368002BFBD02B6038BD543D0020AE
:101B9000704700BF704700BF51F8043C181F002B6E
:101BA000BCBF0B58C0187047002838D010B5044689
:101BB0000378002B35D001462548FEF775FD90B31C
:101BC00021462448FEF770FD78B321462248FEF7EF
:101BD0006BFD60B321462148FEF766FD48B3214600
:101BE0001F48FEF761FD30B321461E48FEF75CFD3D
:101BF00018B321461C48FEF757FD00B321461B4889
:101C0000FEF752FDE8B121461948FEF74DFDD0B16F
:101C100021461848FEF748FDB8B9012002E000202F
:101C20007047002010BD0120FCE70120FAE70120E9
:101C3000F8E70120F6E70120F4E70120F2E70120B0
:101C4000F0E70120EEE70120ECE70020EAE700BF23
:101C50002C5C0008345C0008385C0008405C00081C
:101C6000485C0008545C0008605C0008685C000880
:101C7000705C0008785C000882B00190019A044B07
:101C80001A60034B1B68002BFBD102B0704700BFEA
:101C9000F400002010B50121094800F0F1FD10B159
:101CA0000024204610BD04460A20FFF7E5FF01216D
:101CB000034800F0E5FD0028F3D10124F1E700BF5F
:101CC0000000024010B584B0374B4FF000629A60BC
:101CD000012000F03FFE00F029FB344C204600F0CC
:101CE00049FE6368324AA2FB03239B09013BB3F11F
:101CF000807F09D22F4A53602B4BF02183F82310A9
:101D000000239360072313603220FFF7B5FF00F034
:101D1000F9F800F099FB02F039FB0321002002F0F2
:101D200011FA0321012002F00DFA0321022002F032
:101D300009FA0321084602F005FA0321042002F003
:101D400001FA02F0B3F91C4B01221A701B48FFF78D
:101D50002BFF88B900F050F901F04EF81748FFF753
:101D600023FFA0B9C820FFF787FF01F00DFE4FF455
:101D7000FA70FFF781FFF8E7114B0193712300938D
:101D8000104B114A0D49042001F0A0FFE2E70F4B70
:101D900002930F4B01937A2300930A4B0A4A074997
:101DA000032001F093FFDDE700ED00E0383C002068
:101DB000D34D621010E000E0F00000202C5C000821
:101DC000905C0008D85C0008805C000800C0000837
:101DD000A45C0008034B1B681BB1024A1368013B5B
:101DE00013607047F4000020204B984228D303F57D
:101DF0008043984226D303F58043984224D31C4B5A
:101E0000984223D903F58033984221D903F5003352
:101E100098421FD903F5003398421DD903F50033CA
:101E200098421BD903F50033984219D903F50033C2
:101E3000984217D903F50033984215D958207047B6
:101E40000020704708207047102070471820704706
:101E50002020704728207047302070473820704776
:101E600040207047482070475020704700400008CD
:101E7000FFFF000808B500F06BFB00F081FB0128B4
:101E8000FBD008BD08B500F073FB08BD10B50446D3
:101E9000FFF7F0FF0221204600F0B2FB0446FFF7F7
:101EA000F1FF204610BD000070B506460C46FFF756
:101EB0009BFF05463019FFF797FF0646002401E017
:101EC0000134E4B20C2C0CD8074B53F82400A84280
:101ED000F6D3B042F4D8FFF7D9FF0928F0D001209B
:101EE00000E0002070BD00BFE05C000838B504468B
:101EF0000D46FFF7BFFF2946204600F0B9FBFFF76C
:101F0000C1FF38BDF0B583B00121084600F08EFD59
:101F10004FF48073009303238DF8053002278DF86A
:101F2000047000248DF8064001258DF80750164EE8
:101F30006946304600F05EFC21464FF4800000F018
:101F40000FFD8DF8064000958DF804408DF8057062
:101F50008DF807506946304600F04CFC29460420B5
:101F600000F064FD4FF4005300938DF805408DF8A8
:101F700004508DF806408DF807406946034800F08C
:101F800039FC03B0F0BD00BF000002400008024071
:101F900000B583B001238DF8043000228DF80620AF
:101FA0004FF4005200928DF8073003238DF805306E
:101FB0006946034800F01EFC03B05DF804FB00BF57
:101FC0000004024010B5044602210A4800F0BBFD9F
:101FD0000028F9D02146074800F0B3FD012105484B
:101FE00000F0B1FD0028F9D0024800F0A7FDC0B212
:101FF00010BD00BF0038004030B589B0012102207B
:1020000000F014FD01214FF4804000F01DFDFFF7AA
:10201000BFFF2B4D01224FF40051284600F03BFC3E
:1020200002238DF81C3000248DF81E404FF44443E9
:1020300006938DF81F4003238DF81D3006A928460E
:1020400000F0D8FB05220A21284600F029FC0522D1
:102050000E21284600F024FC05220F21284600F01E
:102060001FFC01214FF4804000F018FD21464FF481
:10207000804000F013FDADF80440ADF81040ADF81D
:102080000C40ADF80A400723ADF81430ADF8084015
:10209000ADF812404FF48273ADF806304FF4007380
:1020A000ADF80E30074C01A9204600F013FD0121C8
:1020B000204600F035FDFF20FFF784FF09B030BD5A
:1020C00000040240003800402DE9F84381460C46E8
:1020D0001646204B1F680D464FF001080EE019F818
:1020E000011B1D4800F02DFD013CA4B24FF000087B
:1020F0000FE0184B1B68DB1BB3421DD204B915B3AC
:102100000221154800F01FFD18B114B1B8F1000FFD
:10211000E5D10121104800F016FD0028E9D0002D7E
:10212000E7D0B8F1000FE4D10B4800F007FD013D06
:10213000ADB24FF00108DCE74021074800F00AFD8E
:102140000020BDE8F8834021034800F003FD012092
:10215000F7E700BF483C0020003800402DE9F04779
:1021600081460C4616461D4B1F6882460D464FF0B1
:1021700001080EE019F8011B194800F0E2FC013CCF
:10218000A4B24FF000080FE0144B1B68DB1BB342F6
:1021900021D204B9EDB10221114800F0D4FC18B1EC
:1021A00014B1B8F1000FE5D101210D4800F0CBFCCE
:1021B0000028E9D0002DE7D0B8F1000FE4D108489D
:1021C00000F0BCFC0AF8010B013DADB24FF0010874
:1021D000DAE7012000E00020BDE8F087483C00205D
:1021E000003800407047FEE7FEE7FEE7FEE7704775
:1021F0007047704708B5FFF7EDFD08BD08B5012130
:10220000054800F0ABFC00B908BD0121024800F010
:10221000B1FC00F0D3F8F7E70004004082B00023DF
:1022200001930093294A136843F480331360274BCA
:102230001B6803F400330093019B01330193009B5F
:102240001BB9019BB3F5A04FF1D1204B1B6813F4D0
:10225000003F06D001230093009B012B04D002B065
:10226000704700230093F7E7184B1A6C42F0805236
:102270001A6417490A6842F440420A609A689A60F0
:102280009A689A609A6842F480529A60114A5A6039
:102290001A6842F080721A600C4B1B6813F0007FC2
:1022A000FAD00D4B40F202721A60A3F580639A686F
:1022B00022F003029A609A6842F002029A60034B8D
:1022C0009B6803F00C03082BF9D1C8E700380240E3
:1022D0000070004019304004003C024010B5104C22
:1022E000D4F8883043F47003C4F888300D4B1A6872
:1022F00042F001021A60002199601A6822F084728B
:1023000022F480321A60084A5A601A6822F4802245
:102310001A60D960FFF782FF4FF00063A36010BD21
:1023200000ED00E000380240103000241E4B9B6896
:1023300003F00C03042B15D0082B17D01BB11B4B3B
:102340001B4A1A6002E0194B194A1A60164B9B6827
:10235000C3F30313174AD35CDAB214490B68D340B2
:102360000B607047114B144A1A60EFE70E4B596827
:10237000C1F380525B6803F03F0311F4800F08D073
:102380000D4AB2FBF3F3084A5268C2F3881202FB0B
:1023900003F2054B5B68C3F3014301335B00B2FBFF
:1023A000F3F3024A1360D1E70038024074000020C2
:1023B0000024F4006400002040787D0108B51D4B26
:1023C0001B780BBB1C4A138801339BB21380B3F5F7
:1023D0007A5F02D3174B01221A70174B1B88174ADA
:1023E000A2FB03231B0A164A1278322A17D9144A71
:1023F00000211170124A1278934214D84FF4005100
:10240000104800F044FA08BD0B4A1388013B9BB208
:102410001380002BE1D1074B00221A70DDE7013257
:1024200007490A70E6E74FF40051064800F031FA18
:10243000E9E700BFFB000020F8000020CDCCCCCCA9
:10244000FA0000200008024070B586B0012108465D
:1024500000F0ECFA0121102000F004FB4FF4C063FF
:10246000049302238DF815308DF8143000248DF874
:10247000164001268DF81760164D04A9284600F075
:10248000B9F907220921284600F00AFA07220A2191
:10249000284600F005FAADF80E404FF4E133009302
:1024A000ADF80440ADF80640ADF808400C23ADF897
:1024B0000A30ADF80C4004F1804404F588346946D4
:1024C000204600F0D9FB3146204600F03DFC06B026
:1024D00070BD00BF0000024038B504460D468021A3
:1024E000204600F043FC0028F9D02946204600F0A1
:1024F00039FC38BD10B503460C4A0D490D4800683B
:1025000040B10C4800680344521A934206D8094A65
:10251000136010BD0748084C0460F2E7FDF794FE15
:102520000C2303604FF0FF30F3E700BF00C0012031
:1025300000040000FC000020583D002021F0604114
:1025400021F07F010143014B9960704700ED00E0ED
:10255000054B1B69002B00DB7047034B034A5A6095
:1025600002F188325A60F7E7003C024023016745D8
:10257000024A136943F0004313617047003C024074
:10258000124BDB6813F4803F15D1104BDB6813F05E
:10259000100F12D10D4BDB6813F4807F0FD10B4B62
:1025A000DB6813F0E00F0CD1084BDB6813F0020F6F
:1025B00009D008207047012070470620704702208C
:1025C0007047072070470920704700BF003C024059
:1025D00000B583B009238DF80730FFF7D1FF8DF8E0
:1025E00007009DF80730DBB2012B04D1FFF7C8FFCD
:1025F0008DF80700F5E79DF8070003B05DF804FBD0
:1026000070B5044649B101290DD0022902D04FF41A
:10261000407603E04FF4007600E00026FFF7D8FF95
:10262000092803D070BD4FF48076F7E70F4D2B6972
:1026300023F440732B612B691E432E612B6923F019
:10264000F8032B612869204340F0020028612B69C0
:1026500043F480332B61FFF7BBFF2B6923F00203A8
:102660002B612B6923F0F8032B61DBE7003C024070
:1026700070B505460C46FFF7ABFF092800D070BDCA
:102680000A4E336923F440733361336943F40073B2
:102690003361336943F0010333612C60FFF798FF26
:1026A000336923F001033361E9E700BF003C0240D6
:1026B00008B5454B984228D0444B98422ED0444B05
:1026C000984234D0434B98423AD0434B984240D042
:1026D000424B984246D0424B98424CD0414B984294
:1026E00052D0414B984258D0404B984260D0404B1A
:1026F000984212D101214FF4806000F0C1F900210D
:102700004FF4806000F0BCF907E00121084600F0BA
:10271000B7F90021012000F0B3F908BD0121022022
:1027200000F0AEF90021022000F0AAF9F5E701213E
:10273000042000F0A5F90021042000F0A1F9ECE745
:102740000121082000F09CF90021082000F098F9F0
:10275000E3E70121102000F093F90021102000F0A0
:102760008FF9DAE70121202000F08AF900212020EA
:1027700000F086F9D1E70121402000F081F9002125
:10278000402000F07DF9C8E70121802000F078F9B1
:102790000021802000F074F9BFE701214FF4807020
:1027A00000F06EF900214FF4807000F069F9B4E791
:1027B00001214FF4007000F063F900214FF4007024
:1027C00000F05EF9A9E700BF0000024000040240EB
:1027D00000080240000C02400010024000140240B9
:1027E00000180240001C0240002002400024024069
:1027F0000028024000230F2B41D8F0B425E0826866
:102800001640866082684D79A5402A4382604568FB
:102810009FB20126BE4025EA0605456045688A79D3
:10282000BA4092B22A434260C2689DB26E0003254C
:10283000B54022EA0502C260C268CD7905FA04F407
:102840001443C46001330F2B17D801229A400C683F
:10285000A243F7D105685C000322A240D64325EAD3
:102860000202026002680D79A5402A4302600A79DB
:10287000013AD2B2012AD7D8C1E7F0BC70477047FD
:102880000369194201D0012070470020704701837D
:102890007047418370470AB1018370474183704795
:1028A00030B401F007039B0002FA03F4C9080831B1
:1028B00050F821200F2505FA03F322EA030340F81C
:1028C000213050F82120224340F8212030BC7047AD
:1028D000014B1860704700BF00300040014B58604A
:1028E000704700BF00300040014B9860704700BF48
:1028F00000300040024B4AF6AA221A60704700BF1F
:1029000000300040024B4CF6CC421A60704700BFCA
:10291000003000400C4B1A6842F001021A6000219E
:1029200099601A6822F0A85222F410221A60074A0D
:102930005A60074AC3F884201A6822F480221A6079
:10294000D960C3F88C107047003802401030002462
:1029500000300020014B1860704700BF4C00474218
:10296000034A936823F0EC63084318439060704770
:102970000038024010B4294B9B6803F00C03042B71
:1029800023D0082B24D013B1254B036001E0244B46
:102990000360224CA368C3F303132249CB5CDAB271
:1029A0000368D3404360A268C2F382228A5CD2B239
:1029B00023FA02F28260A268C2F342328A5CD2B287
:1029C000D340C3605DF8044B7047174B0360E0E7EA
:1029D000124B5A685B6803F03F0312F4800F12D069
:1029E000114AB2FBF3F20D4B5B68C3F3881303FB90
:1029F00002F30A4A5268C2F3014201325200B3FBA9
:102A0000F2F30360C5E7064AB2FBF3F2034B5B68DF
:102A1000C3F3881303FB02F3EBE700BF0038024067
:102A20000024F4007800002040787D0121B1054A9F
:102A3000136B184310637047024A136B23EA0000BC
:102A4000106370470038024021B1054A136C1843E7
:102A500010647047024A136C23EA00001064704748
:102A60000038024021B1054A536C18435064704746
:102A7000024A536C23EA0000506470470038024059
:102A800021B1054A1369184310617047024A13695E
:102A900023EA0000106170470038024021B1054A66
:102AA000136A184310627047024A136A23EA00004F
:102AB000106270470038024021B1054A536A18433A
:102AC00050627047024A536A23EA0000506270471E
:102AD000003802402DE9F041038803F44152B1F877
:102AE00000E0B1F80280B1F804C0CF880E894D89AA
:102AF0008C89CB894EEA080E4CEA0E0C47EA0C078B
:102B00003E4335432C43234313430380838B9BB2C3
:102B100023F400639BB283830B8A0382BDE8F081B8
:102B200029B103889BB243F04003038070470388B8
:102B30009BB223F040039BB203807047808980B230
:102B40007047818170470389194201D00120704785
:102B500000207047C94389B201817047028A838986
:102B60000B40114202D01BB9002070470020704773
:102B700001207047C94389B20182704708B5364BBE
:102B8000984215D0354B98421BD0354B984223D0F4
:102B9000344B98422BD0344B984233D0334B98422D
:102BA0003BD0334B984241D0324B984249D008BD7C
:102BB00001211020FFF780FF00211020FFF77CFF8C
:102BC000F5E701214FF40030FFF768FF00214FF4D3
:102BD0000030FFF763FFEAE701214FF48020FFF7A1
:102BE0005DFF00214FF48020FFF758FFDFE7012150
:102BF0004FF40020FFF752FF00214FF40020FFF7B1
:102C00004DFFD4E701214FF48010FFF747FF00216B
:102C10004FF48010FFF742FFC9E701212020FFF7A2
:102C20004BFF00212020FFF747FFC0E701214FF0B5
:102C30008040FFF733FF00214FF08040FFF72EFF69
:102C4000B5E701214FF00040FFF728FF00214FF0CA
:102C50000040FFF723FFAAE70010014000440040B6
:102C600000480040004C004000500040001401406B
:102C700000780040007C004030B585B004460D4629
:102C8000038A9BB223F44053CA8813430382838987
:102C90009BB223F4B05323F00C03898828896A89F6
:102CA00001430A431343A381A38A9BB223F44073D5
:102CB000AA891343A3826846FFF75CFE204B9C421F
:102CC00005D003F580639C4201D0029B00E0039B8A
:102CD000A28912F4004F1FD103EB830303EB83039C
:102CE00029688900B3FBF1F1164BA3FB01235809B6
:102CF0000501642300FB1313A28912F4004F14D1C1
:102D00001B0132330F4AA2FB0323C3F343132B43AC
:102D10009BB2238105B030BD03EB830303EB830338
:102D200029684900B3FBF1F1DEE7DA003232054BE6
:102D3000A3FB0232C2F3421242EA0503E8E700BFF6
:102D4000001001401F85EB5129B183899BB243F4E8
:102D500000538381704783899BB223F400539BB255
:102D600083817047C1F3080181807047038819424D
:102D700001D0012070470020704708B5002001F005
:102D8000C3FC10B190F8343023B148B190F834301E
:102D900043B108BD02F0D0F8002001F0B5FCF4E723
:102DA0000020F6E70020F4E70C4B41F2140202FB8E
:102DB000003041F20403C150C1F30B0200F580530F
:102DC0001A80C1F3073141F20803C154002341F2D4
:102DD0000C02835041F2100283547047000100201E
:102DE000044B41F2140202FB003041F20403C058CC
:102DF000704700BF0001002008B502F09DF842F2C4
:102E0000280200210148FDF765FB08BD00010020F4
:102E100070B50646C40404F50025AC4205D2204630
:102E200000F048F904F58054F7E741F2140200215C
:102E3000024802FB0600FDF74DFB70BD00010020BB
:102E40002DE9F04105460F461646FFF796FF00288C
:102E500042D08046002F41D0002E41D0002400E017
:102E60000134B44235D2204B41F2140202FB053248
:102E700002F580510B88385DD05401339BB20B8032
:102E8000B3F5805FECD1184A41F2140303FB05232C
:102E900041F20802995C01EBC5114FF4805209031D
:102EA000404601F032FFE8B90F4A41F2140303FB38
:102EB000052303F580520021118041F208015A5C7C
:102EC00001325A5441F204015A5802F580525A50C4
:102ED000C6E70020BDE8F0810120FBE70120F9E70B
:102EE0000120F7E70120F5E70001002038B504468E
:102EF000FFF743FF78B30546194A41F2140303FB79
:102F0000042303F580531A880AB9002038BD1449F8
:102F100041F2140303FB041341F20801585CE1047D
:102F200001EB0031284601F0F0FEB0B90C4B41F244
:102F3000140202FB043404F58052158841F20401A6
:102F400063582B44635000211180C3F3073341F2CF
:102F50000802A354DAE70120D8E70120D6E700BF32
:102F600000010020F8B504460D461646FFF705FFA0
:102F700000283BD00746002D3AD0002E3AD0204AF8
:102F800041F2140303FB042341F204029A5841F274
:102F90000C015B589A422FD9D21AB2F5805F23D91F
:102FA0004FF480533380164A41F2140303FB042389
:102FB00041F20C0299582B46328801EBC441384645
:102FC00001F01EFCD0B933880D4A41F2140101FB17
:102FD000042441F20C02A1580B44A350C3F307335D
:102FE00041F21002A35408E03280DCE7022004E042
:102FF000022002E0022000E00120F8BD0220FCE7F0
:103000000001002010B582B005238DF80430104C6B
:103010004FF400512046FFF73CFC4FF47A72012137
:1030200001A8FFF751F84FF47A7201210DF1030066
:10303000FFF794F84FF400512046FFF728FC9DF865
:10304000030010F0010001D102B010BD0220FBE727
:103050000004024030B583B006238DF80430134BD2
:103060001C68134D4FF400512846FFF712FC4FF433
:103070007A72012101A8FFF727F84FF40051284682
:10308000FFF705FCFFF7BEFF022809D1074B1B68BD
:103090001B1BB3F57A7F06D80120FEF7EDFDF1E7A3
:1030A000002003B030BD0320FBE700BF483C0020F8
:1030B0000004024030B583B0194B1C6820238DF802
:1030C0000430C0F307438DF80530C0F307238DF8B3
:1030D00006308DF80700FFF7BDFF124D4FF4005189
:1030E0002846FFF7D6FB4FF47A7204210DEB01005E
:1030F000FEF7EAFF4FF400512846FFF7C8FBFFF741
:1031000081FF022808D1064B1B681B1B40F6B83212
:103110009342F4D9032000E0002003B030BD00BF8B
:10312000483C00200004024008B5FFF7E3FB08BD5F
:1031300008B572B600F0E0FF00F084FD0E48FFF71E
:103140001DFD0E48FFF7B4FA0D4A002313605360CB
:1031500093600BE00B4A03F120004FF0FF3142F87F
:10316000201003F1600042F820100133072BF1D941
:10317000FFF7D0FB08BD00BF001001400000024077
:1031800010E000E000E100E000B583B0124B1B78D6
:1031900023B1FFF7C9FF03B05DF804FB45F25550BA
:1031A000FFF796FB0420FFF799FB40F6B830FFF7D6
:1031B0009BFBFFF79FFBFFF7A5FB074B01221A7054
:1031C000064B01936A230093054B064A06490320E8
:1031D00000F07CFDDDE700BF28210020345D000801
:1031E000F4630008105D0008345C00082DE9F0412C
:1031F00086B006460F46FFF7F3FD0023ADF8163004
:1032000030B3804601463A48FEF74EFE70BB384D5B
:10321000FFF78AFF0DF1160236493046FFF7A2FE8E
:10322000012831D0022840D0BDF8163013F0030435
:103230004DD003930297304B0193B72300932F4B4C
:103240002F4A3049012000F041FD4FF0FF3029E0C6
:1032500002972D4B019397230093284B284A294925
:10326000012000F033FD4FF0FF301BE00297274BA9
:1032700001939D230093214B214A2249012000F014
:1032800025FD4FF0FF300DE0CDF80C800297204B6C
:103290000193AA230093194B194A1A49032000F0FD
:1032A00015FD002006B0BDE8F0810297194B01938F
:1032B000B1230093114B124A1249012000F006FD80
:1032C0004FF0FF30EEE7FFF72FFF0134A4B2BDF857
:1032D0001630B4EB930F9BD2064B53F824102846BC
:1032E000FEF704FE043514F03F0FEED1EBE700BF0C
:1032F00000C000082C210020CC5D000808640008F4
:10330000105D0008345C00084C5D0008685D000832
:10331000885D0008AC5D000830B585B0134B1C68B3
:1033200004331D68124B2340B3F1005F11D0114BE1
:103330001B78CBB10D4B039302940F4B01934FF4C9
:10334000CB7300930D4B0E4A0E49012000F0BEFCDA
:103350000AE0FFF7EDFE4FF440414FF00060FFF749
:10336000EDF884F30888A84705B030BD00C0000818
:103370000000FE2FF0000020F45D00082C6400081F
:10338000105D0008345C00082DE9F04FA5B005463B
:103390000023ADF86E30421EB74B9A4200F2B68061
:1033A00001460020FFF700FDFFF7BEFEB34B1CAC4B
:1033B0000FCB84E80F000DF16E02B1490020FFF73A
:1033C000D1FD0246002840F0B080BDF86E300F2BD2
:1033D00040F2AB80AA4B0DF180090FCB89E80F00BA
:1033E0009DF8803013939DF8812014929DF88230CF
:1033F0009DF883209DF8841015919DF88500169006
:103400009DF8864017949DF8877018979DF88860FE
:103410009DF8891019919DF88AC09DF88BE09DF860
:103420008C109DF88D009DF88EA09DF88FB0DFF870
:103430006C82944F944CCDF844B0CDF840A00F90DE
:103440000E91CDF834E0CDF830C019990B910A9661
:10345000189E0996179E0896169907911599069138
:1034600005920493149A0392139B0293874B019342
:103470004FF4EB73009343463A462146032000F095
:1034800025FC834A49461CA802F046FB9DF88F3074
:103490009DF88E60360446EA03669DF88D3046EA54
:1034A00003269DF88C301E4303950296794B0193B9
:1034B0004FF4F273009343463A462146042000F04D
:1034C00005FC002E43D0B54241D3C6F30F1A16F0C7
:1034D0000F0F03D00AF1010A1FFA8AFA02966E4B07
:1034E000019340F2F31300936C4B664A6649032044
:1034F00000F0ECFBFFF718FE0120FFF789FC4FF00E
:1035000000094F464FF0100B4D4660E00290644BAF
:10351000019340F2B9130093604B5A4A5A49012073
:1035200000F0D4FB4FF0FF30A2E0BDF86E30039303
:1035300002925C4B01934FF4E4730093574B514A52
:103540005149012000F0C2FB4FF0FF3090E0564B94
:10355000019340F2E9130093504B4A4A4A49012033
:1035600000F0B4FB4FF0FF3082E0FFF7DDFD33E009
:103570000DF16E0242490020FFF7F4FC10B94FF044
:10358000000B2DE00295494B019340F20923009373
:10359000424B3C4A3C49012000F098FB4FF0FF3081
:1035A00066E00393CDF808B0414B019340F212233B
:1035B00000933A4B334A3449012000F087FB4FF027
:1035C000FF3055E0374629E00135ADB2C3465545D9
:1035D0003ED215F03F0FC8D0BDF86E305B45C7D066
:1035E0000BF11008BDF86E309845DAD8244A0BEB81
:1035F000020320AC52F80B0059689A68DB680FC4CC
:10360000234A20A91CA802F087FA102220A9012031
:10361000FFF716FCF31B0F2BD4D9103707EB8704E9
:103620006400B4FBF6F4A145CED20496039704EBF4
:1036300084035B0002931F4B019340F22B23009302
:10364000164B104A1049032000F040FBA146BBE78F
:103650000120FFF74BFC0296174B019340F23323F6
:1036600000930E4B074A0849032000F02FFB00206F
:1036700025B0BDE8F08F00BFFE3F07004C6000089A
:103680002C210020105D0008345C00088C5E0008CE
:1036900080640008FC5E0008545F0008386400087D
:1036A000305E0008585E00082C5F0008885F000844
:1036B000B05F0008E05F00081860000810B584B033
:1036C00004460290164B019340F247230093154B9A
:1036D000154A1649042000F0F9FA621E144B9A426A
:1036E0000FD8FFF721FD0020FFF792FB224611497A
:1036F0000020FFF7A5FB0020FFF7F8FB002004B037
:1037000010BD02940C4B01934FF413730093054BBF
:10371000054A0649012000F0D9FA4FF0FF30EEE7E4
:103720006060000848640008105D0008345C000810
:10373000FE3F070000C00008A060000800B583B08D
:10374000084B019340F265230093074B074A084951
:10375000042000F0BBFA07490120FFF747FD03B042
:103760005DF804FBC460000854640008105D0008A4
:10377000345C0008EC60000800B583B0084B01938E
:1037800040F277230093074B074A0849042000F0D2
:103790009DFA07490020FFF729FD03B05DF804FBFF
:1037A000F860000860640008105D0008345C0008E0
:1037B0002061000870B588B004460D46FFF7B4FCE0
:1037C00004A800F0D9F938BB2046FFF7DDFD50BB57
:1037D000002D3DD0FFF7A8FCFFF7B0FF002840F018
:1037E0008A8033230593621E594B9A4200D807946E
:1037F00004A800F0DBF9002800F09280554B0193FB
:1038000040F23B130093544B544A5549012000F0B9
:103810005DFAFFF781FD11E00023059306930793FE
:10382000504B0493D0E7504B0193EA2300934A4B4B
:103830004A4A4B49012000F049FA0DB108B070BD69
:103840000023059304A800F0B1F9FFF765FDF5E743
:10385000FFF76AFC079EB6F1FF3F34D0721E3C4B67
:103860009A420FD9621E9A420CD802943F4B0193A0
:1038700040F207130093384B384A3949022000F0D0
:1038800025FA2646721E324B9A4228D80296384BA9
:10389000019340F2111300932F4B304A304904201A
:1038A00000F014FA3046FFF709FF002892D0314BA0
:1038B000019340F217130093274B284A284902200E
:1038C00000F004FA86E72C4B0193FB230093224B74
:1038D000224A2349022000F0F9F90026BEE7274BCF
:1038E000019340F21D1300931B4B1C4A1C490220FC
:1038F00000F0ECF96EE7224B01934FF493730093C1
:10390000154B164A1649012000F0E0F915B1FFF7F2
:1039100003FD93E70023059304A800F047F9F6E7B9
:10392000FFF7FAFC25B9FFF7FFFBFFF725FF10B9FA
:10393000FFF7F2FC82E7134B01934FF4A57300935A
:10394000054B064A0649012000F0C0F976E700BFA2
:10395000FE3F07008062000818640008105D000840
:10396000345C0008A55A5AA52C6100089061000833
:10397000C8610008F4610008546100082062000872
:1039800058620008B062000810B588B004A800F0C2
:10399000F3F800282DD1059C6A4B1B8863B9E3B26C
:1039A0000293694B019340F29F230093674B684A4F
:1039B0006849032000F08AF9FFF7B6FBE4B2332C24
:1039C00000F09F8038D8112C7DD0222C19D1069C74
:1039D000002C40F08D80604B01934FF43C730093BA
:1039E0005A4B5B4A5B49012000F070F9FFF794FCE9
:1039F0007CE0002306930793584B0493FF23059321
:103A0000C9E7002C40F09180FEF744F9002857D018
:103A1000534801F095FD00284EDC0290514B019374
:103A200040F2C9230093494B494A4A49012000F01A
:103A30004DF9FFF771FC59E0442C6CD0FF2C74D188
:103A4000494B019340F2A7230093404B404A414920
:103A5000032000F03BF9FEF71DF9B8B9394A138885
:103A600001339BB2138044F61F6293423ED93F4B11
:103A7000019340F2BB230093344B354A3549022071
:103A800000F024F92F4B00221A802FE0344801F077
:103A900057FD00280CDC0290324B019340F2AF231B
:103AA00000932A4B2A4A2B49012000F00FF91DE010
:103AB0000121FFF77FFE19E00021FFF77BFE15E0F3
:103AC000FFF72AFC12E02A4B01934FF4387300935E
:103AD0001E4B1F4A1F49022000F0F8F8FFF71CFC9C
:103AE0001F4801F02DFD0021FFF764FE08B010BD56
:103AF00021460020FFF758F900212046FFF75AFE23
:103B0000F4E74423059304A800F050F8FFF73CFBCA
:103B1000FFF702FCEAE70023059304A800F046F84B
:103B2000FFF732FBFFF7F8FBE0E70294114B01933C
:103B30004FF445730093054B054A0649012000F0F8
:103B4000C5F8D3E72C310020D86200086C64000867
:103B5000105D0008345C0008A0630008A55A5AA54F
:103B6000383800201C630008EC620008406300083D
:103B700078630008CC63000870B130B40546094C86
:103B80000FCC28606960AA60EB602A68064B9A42F5
:103B900005D1002030BC70474FF0FF3070474FF028
:103BA000FF30F7E700800008A55A5AA510B330B5DA
:103BB00085B005461020FEF769F909281DD10024BB
:103BC00009E004F1007000F5005055F82410800061
:103BD000FEF78CF90134032CF3D90B4B6C460FCB59
:103BE00084E80F00102229462046FCF7A9FB38B9CB
:103BF00005B030BD4FF0FF3070474FF0FF30F7E7B2
:103C00004FF0FF30F4E700BF0080000870B50024DB
:103C1000042C13D80A4D04EB441606F13000284456
:103C20001F2200210230FCF755FC3544002385F8A3
:103C3000313085F851300134E4B2E9E770BD00BF9E
:103C40003031002008B5064B93F8F03003B908BDB9
:103C500000F01BFC024B002283F8F020F7E700BFC6
:103C600030310020014B83F8F100704730310020E3
:103C7000014B83F8F50070473031002008B5084B40
:103C800093F8F23023B9064B012283F8F32008BDE4
:103C900000F003FC024B012283F8F420F7E700BF99
:103CA0003031002008B5084B93F8F23023B9064BA9
:103CB000002283F8F32008BD00F0F0FB024B002245
:103CC00083F8F420F7E700BF303100202DE9F04FF2
:103CD0008FB00546894617461E46DDF860800846C7
:103CE000FCF74EFE824600230C93ADF83430089367
:103CF00009930A930B93052D07D9BC4B1B687BB125
:103D000040F23F22BA49BB489847BB4B93F8F13089
:103D10001BB1B94B1B78AB4212D20FB0BDE8F08F8C
:103D2000B34B40F23F2204920393B2490291B3494C
:103D300001910092B24AB3490020FFF7C7FFFEE7A6
:103D4000484600F061FAA842E7D3AF494846FDF77C
:103D500043F80028E1D01AAB0793FFF78FFFA64B7B
:103D600093F8F530002B5AD100240121284600F0A9
:103D7000A5FA002864D10221284600F09FFA002805
:103D800068D11C21284600F099FA002840F0838071
:103D90003A462021284600F0D4FA38B9324640216C
:103DA000284600F0CEFA002800F0CC80974A9849C7
:103DB0002144204600F00EFB04443A4620212846C8
:103DC00000F0BFFA002840F0C68042468021284615
:103DD00000F0ACFA002840F0E3803246402128464B
:103DE00000F0AFFA002840F0F8808A4A8849214460
:103DF000204600F0EFFA0444079B199AC4F580614D
:103E000083482044FDF7DEF80444B4F5806F00F2E7
:103E10001381002880F212814FF480640EE1DFF8F4
:103E2000F0B17D4A5946002000F0D4FA04467B4B9D
:103E300053F825200BEB000100F0CCFA044494E782
:103E4000774B53F8252072492144204600F0C2FAEE
:103E5000044490E74A466E492144204600F0BAFAED
:103E60000444BAF10F0F07D96E4A6949214420462C
:103E700000F0B0FA044484E7CAF10F0220210DEBF0
:103E80000100FCF727FB08AA61492144204600F005
:103E9000A1FA0444E8E7644A5D492144204600F061
:103EA00099FA04440421284600F008FA90B9082140
:103EB000284600F003FA20BB1021284600F0FEF946
:103EC000002835D1594A52492144204600F082FA4F
:103ED00004445DE700F0E4FA02464D4921442046DF
:103EE00000F078FA04441821284600F0E7F9002889
:103EF000DDD04C4A46492144204600F06BFA044488
:103F0000D5E700F0D1FA024641492144204600F0AD
:103F100061FA04441021284600F0D0F90028CBD0E3
:103F2000404A3B492144204600F054FA0444C3E788
:103F300000F0BEFA024636492144204600F04AFA13
:103F40000444BFE742468021284600F0EFF90028EC
:103F50003FF452AF2AE73A462D492144204600F06B
:103F600039FA044432464021284600F0EAF938B1D3
:103F70002F4A27492144204600F02CFA044424E724
:103F800042468021284600F0D1F900283FF41DAFB9
:103F9000244A1F492144204600F01CFA044414E737
:103FA0004346244A05210CA8FCF726FB0CAA184915
:103FB0002144204600F00EFA0444324640212846AF
:103FC00000F0BFF900283FF408AF164A1049214419
:103FD000204600F0FFF90444FFE632460C49214434
:103FE000204600F0F7F90444FFE600BF4C3C0020F7
:103FF0003C660008CC64000830310020E86400080A
:10400000A0640008C464000831310020186500086D
:1040100028320020246500080C6500085866000856
:1040200070660008747300081065000814650008C5
:104030001C650008206500084FF48064A31DB3F5DB
:10404000806F01D940F2FA34134B93F8203033B12A
:104050001248002303551249FCF7BEFE80B10E4BF7
:1040600093F8F5307BB90D4D0E4A2919204600F022
:10407000B1F92118284600F009FAFFF713FE4CE6C3
:10408000FFF710FE49E6084A04492144204600F0A3
:10409000A1F90444E7E700BF3031002028320020B6
:1040A0005031002030650008286500080C4B93F85B
:1040B000F03003B9704700B585B00120FFF7D2FD9D
:1040C000084B0293084B0193F7230093074B084AD0
:1040D00008490320FFF7FAFD05B05DF804FB00BFB7
:1040E00030310020346500083C650008E8650008B0
:1040F000A0640008C46400080C4B93F8F03003B9C6
:10410000704700B585B00020FFF7ACFD084B029367
:10411000084B01934FF486730093074B074A0849F5
:104120000320FFF7D3FD05B05DF804FB303100201C
:104130003465000864650008F4650008A0640008A0
:10414000C464000830B587B004460D46052807D979
:104150000E4B1B6853B140F241120D490D48984770
:1041600036340D4B43F8245007B030BD084B40F2B5
:104170004112049203930749029108490191009268
:10418000074A08490020FFF7A1FDFEE74C3C00204C
:1041900000660008CC64000830310020E8640008A4
:1041A000A0640008C464000810B586B00446052861
:1041B00007D90E4B1B6843B140F25B120C490D4806
:1041C00098470D4B1C7006B010BD094B40F25B12B6
:1041D0000492039307490291084901910092084A09
:1041E00008490020FFF772FDFEE700BF4C3C0020AD
:1041F00010660008CC64000830310020E864000834
:10420000A0640008C464000870B586B0064640B1DA
:10421000234B93F8F030002B3FD0FFF72FFD002405
:1042200019E0204B1B682BB140F2E1121E491F48D8
:104230009847EDE71C4B40F2E112049203931B49AF
:1042400002911B49019100921A4A1B49FFF73EFD5A
:10425000FEE70134E4B2042C19D804EB4412104BED
:10426000134493F85130002BF3D0134630330C49EC
:1042700019441E2202313046FCF7F0FB0028E8D139
:1042800004EB4415064B1D4495F8314000E005242D
:10429000FFF708FD204606B070BD0524FAE700BF11
:1042A000303100204C3C0020246600088C6500085A
:1042B000E8640008A0640008C464000830B587B052
:1042C00004460D46052807D9114B1B686BB14FF406
:1042D00038721049104898473634104B53F8243040
:1042E0002B4212D0012007B030BD0A4B4FF4387278
:1042F0000492039308490291094901910092094AE5
:1043000009490020FFF7E2FCFEE70020EBE700BFD1
:104310004C3C002048660008CC6400083031002086
:10432000E8640008A0640008C46400080AB900201A
:10433000704708B5FFF7C2FF08B1012008BD002093
:10434000FCE72AB108B5FFF7B9FF18B1012008BD95
:10435000002070470020FAE708B50B4B83F8F20005
:1043600058B193F8F4301BB9074A92F8F3202AB9F0
:104370001BB1054B93F8F3301BB108BD00F08DF86D
:10438000FBE700F08BF8F8E73031002038B5104B30
:1043900093F8F03013B10024204638BD00F070F8D7
:1043A00004460028F8D10120FFF7D6FF084D00236E
:1043B00085F8F33085F8F4300120FFF759FC05202B
:1043C000FFF7F2FEFFF722FC012385F8F030E3E768
:1043D0003031002070B586B0054616460C4679B1DE
:1043E0002EB330460278002A38D0691CB5F5806FAC
:1043F00034D20130234603F8012B1C460D46F1E769
:10440000184B1B6823B12C22174918489847E7E737
:10441000154B2C22049203931449029114490191E3
:104420000092144A14490020FFF750FCFEE70D4BA0
:104430001B6823B12D220C4910489847D1E70A4B3D
:104440002D22049203930D49029109490191009292
:10445000084A09490020FFF739FCFEE7801B06B037
:1044600070BD00BF4C3C0020B8660008B066000874
:10447000E864000888660008C4640008B4660008A0
:1044800008B500F003F9002008BD704708B50A46DA
:104490000146002000F0E0F808BD704770470000BA
:1044A00000487047B070000800487047B0700008BE
:1044B00000487047B07000080369C268934204D88E
:1044C0008068801A0344581E70479B1A581E704714
:1044D0002DE9F843044688461646C5688768A7EB69
:1044E0000509914509D940682844FBF759FFBFF3F6
:1044F0005F8F3544E560BDE8F88340684A4628444C
:10450000FBF74EFFED1B35442A4608EB09016068B6
:10451000FBF746FFBFF35F8FE560ECE72DE9F8435B
:10452000064688461746C5684FF000091AE0641B26
:10453000621EB3685C1B944228BF1446BC4228BF6D
:104540003C467068224641462844FBF729FFA144B7
:10455000A0443F1B2544B368AB420BD0BFF35F8F31
:10456000F5604FB13469A542E1D3B268641B1444CD
:10457000621EDEE70025F1E74846BDE8F88300004B
:10458000144B03221A615A6113499961134ADA6183
:104590004FF4FA521A6200229A625A62DA6219667B
:1045A0000F495966102199661A67DA665A670D4AEB
:1045B0001068C3F80700BFF35F8F0B4A92E803004F
:1045C00018609980BFF35F8F20229A71BFF35F8FCD
:1045D000704700BF00C00120C4660008B8C00120B9
:1045E000A8C00120D0660008D4660008F8B50F46C0
:1045F0001646184B451C05EB450503EBC50500EBBE
:10460000400003EBC000C46A012C11D0022C1CD066
:1046100014B100242046F8BD2846FFF74DFF86421E
:10462000F8D8324639462846FFF752FF3446F1E7BC
:104630002846FFF741FF3446864228BF04462246FB
:1046400039462846FFF744FFE4E72846FFF766FFB0
:104650000446DFE700C00120F8B504460D461646C3
:10466000094B1B786BB1EFF311874FF0200181F3F9
:104670001188324629462046FFF7B8FF87F3118894
:10468000F8BDFFF77DFFEEE700C0012008B5FFF79A
:1046900077FF08BD0020704730B490F835305BB12B
:1046A00004250020A84209D2441C2B1BDB0021FA60
:1046B00003F31354E0B2F5E70325F2E730BC70478B
:1046C00030B585B004469F238DF80C30456A03232E
:1046D000009302AB012203A92030A847054658B930
:1046E0009DF8083023739DF8093063739DF80A30F4
:1046F000A373284605B030BD014800F087FCF8E7F9
:10470000DC6600080120704710B50446FFF7FAFF89
:10471000A04205D904EB0414024800EB840010BD4C
:104720000020FCE78800002010B584B00B4605226D
:104730008DF80F20446A012200920DF10F01203004
:10474000A04704B010BD000070B582B00546C46B30
:1047500004E0AB6B84B103B19847013C0DF1070154
:104760002846FFF7E1FF06460028F2D19DF8073002
:1047700013F0010FEDD100E0042626B99DF80730B3
:1047800013F0010F02D0034800F040FC304602B0A5
:1047900070BD00BF0867000870B584B0044600F122
:1047A000200666238DF80C30456A00230093012211
:1047B00003A93046A84798B92046FFF7C5FF9923BB
:1047C0008DF80D30656A0023009301220DF10D0173
:1047D0003046A847054640B165B9284604B070BDCB
:1047E0000546064800F012FCF7E72046FFF7ACFF4D
:1047F0000546F1E7014800F009FCEEE730670008E4
:104800002DE9F04385B016461F468A1803699A427F
:1048100014D80546894600F12008836A0BB140464A
:1048200098472846FFF790FF044660B1EB6A0BB14A
:1048300040469847204605B0BDE8F083134800F095
:10484000E5FB0524F6E70B238DF808300DF109028E
:1048500049462846FFF720FF95F835300BB1052271
:104860000AE0042208E004AB1344FF2103F8081C0B
:104870000132D2B20134E4B2002CF4D06C6A00965A
:104880003B4602A94046A0470446CFE754670008CC
:1048900070B584B004460E46D9B106238DF80F30AA
:1048A000656A0023009301220DF10F0104F120003D
:1048B000A84790B158B926B19DF80E3013F0020FF9
:1048C00011D026B99DF80E3013F0020F10D104B0AC
:1048D00070BD04238DF80F30E2E70DF10E01204684
:1048E000FFF722FFE6E7054800F090FB0220EEE725
:1048F000034800F08BFB0220E9E700BF7C6700085B
:10490000A067000870B584B004460D460121FFF78A
:10491000BFFF064680B995B1B7238DF80F30666AA0
:104920000023009301220DF10F0104F12000B04794
:10493000064640B984F83550304604B070BDE923CE
:104940008DF80F30EBE725B10349044800F05EFB1A
:10495000F2E70349F9E700BFCC670008D467000815
:10496000C467000870B584B0044600F12006836A6D
:104970000BB13046984701212046FFF789FF0546D5
:10498000E0B9C7238DF80C30A38A13F0080F20D0AC
:1049900094238DF80D3080238DF80E309A238DF8F6
:1049A0000F30656A00230093042203A93046A8470C
:1049B0000546BDB92046FFF7C7FE05460021204643
:1049C000FFF766FFE36A0BB130469847284604B00C
:1049D00070BD656A00230093012203A93046A847F1
:1049E0000546E6E7014800F011FBE7E7006800082C
:1049F0002DE9F04784B090468A1803699A420CD892
:104A000004460D4600F1200909B943450AD0A36ABE
:104A10000BB14846984700271CE02A4800F0F6FAF8
:104A2000052710E0FFF79EFF07460CE004222BE06D
:104A3000254800F0EBFA00212046FFF729FFE36A42
:104A40000BB148469847384604B0BDE8F0879B1B39
:104A500098441544B8F1000FEDD094F81CA0A66955
:104A600001212046FFF714FF07460028E3D18DF807
:104A700008A00DF1090229462046FFF70DFE94F823
:104A80003530002BD2D00522676A0023009302A99B
:104A90004846B84707460028CAD12046FFF754FECB
:104AA00007460028C7D1B5FBF6F306FB13531BB12D
:104AB000F21A4245CBD3BEE7B045BCD9A8EB0608F5
:104AC0003544C7E754670008306800082DE9F04F07
:104AD00085B090469946DDF838A000F12003039395
:104AE0008A1803699A4207D805460E46836A0BB1B5
:104AF00003989847002722E02B4800F087FA052703
:104B00004DE0042731E0C1453CD2A8EB040826441F
:104B1000DFF898B0224651460BEB0700FBF740FC4C
:104B2000002300933A19594603986F6AB84707461D
:104B300050BB2846FFF708FE074640BBA244B8F129
:104B4000000F24D001212846FFF7A2FE0746F0B946
:104B5000164A022302F8013B31462846FFF79CFD26
:104B600095F83530002BCCD005274C46B6FBF9F331
:104B700009FB1363002BC6D0A9EB03044445C4D33F
:104B80004446C2E74446C0E7094800F03FFA002126
:104B90002846FFF77DFEEB6A0BB10398984738462D
:104BA00005B0BDE8F08F00BF54670008283600202C
:104BB0005C6800082DE9F04F85B016461C468A183F
:104BC00003699A4228D80546884600F12009836A7D
:104BD0000BB14846984718F0010F10D008F1010AB0
:104BE00004F1010B009401231A4641462846FFF7C1
:104BF0006DFF074600284FD1013E5C46D04601219B
:104C00002846FFF745FE0746002845D1AD238DF81D
:104C100008304FF0010A2DE02F4800F0F7F9052782
:104C20003FE00DF1090241462846FFF735FD95F8B2
:104C3000353063B30522217804AB134403F8081C14
:104C4000531C617804A8034403F8081C4FF0000AC1
:104C50006F6A00230093023202A94846B84707460C
:104C6000B8B92846FFF770FD0746A8B9023E08F11B
:104C700002080234012E18D9BAF1000FD1D12378DD
:104C80008DF8093063788DF80A300122E0E70422BC
:104C9000D1E7124800F0BAF9CFB9EB6A0BB1484638
:104CA0009847384605B0BDE8F08F00212846FFF749
:104CB000EFFD07460028EFD1012EEDD1009401232E
:104CC0001A4641462846FFF701FF0746E4E7002160
:104CD0002846FFF7DDFDE0E7546700085C68000840
:104CE00010B582B0848A14F0010F05D114F0040FBE
:104CF00008D1002002B010BD00934FF48073FFF77D
:104D0000E5FEF7E7FFF756FFF4E7F8B504460D4672
:104D100016461F46FFF76CFE00B1F8BD3B46324613
:104D200029462046FFF7DCFFF7E70000F0B585B025
:104D30000546164600F12007E1B150238DF80C30EE
:104D4000446A00230093012203A93846A047044681
:104D500064B901238DF80C308DF80D606C6A002366
:104D60000093022203A93846A04704463CB92046D6
:104D700005B0F0BD0121FFF78BFD0446E8E70248CE
:104D800000F044F9F3E700BF8868000870B50446F6
:104D900000F01EF9034600285AD1236933B1A38AD3
:104DA00023B1A36913B1237F002B39D12046FFF72C
:104DB00087FC034600284BD1002300E001331D2B64
:104DC0002ED803EB4302464901EBC2021179227B44
:104DD0009142F3D103EB4302414901EBC202517905
:104DE000627B9142EAD103EB43023D4901EBC202EF
:104DF0009179A27B9142E1D1394A03EB430002EB66
:104E0000C00152F83000A060886820618889A082C3
:104E10000969A16103EB430302EBC3031B7D237705
:104E200023698BB1A28A7AB1A2696AB1227F5AB191
:104E30000020112812D82B4D05EBC0052E79257BBB
:104E4000AE4207D00130F4E7274800F0DFF8012335
:104E5000184670BD234A52F8301000E0002129B1F5
:104E6000A2681AB1214800F0D1F804E0E1B11A4675
:104E70001F4800F0CBF82046FFF78EFC03460028C1
:104E8000E6D1A28A12F0040F13D1A18942F2C20224
:104E9000914215D0002BDBD12269B2F1807F19D865
:104EA000002284F83520D3E71946124800F0AEF806
:104EB000E1E7002201212046FFF738FF0346E9E73A
:104EC000A27B162AE6D1002211462046FFF72EFFCC
:104ED0000346DFE701212046FFF714FD0346B7E74D
:104EE000AC6B00087C6E0008B0680008EC68000835
:104EF0001C6900084869000838B50446FFF746FFFA
:104F0000054618B92046FFF7C5FB054645B90123FC
:104F100084F834302168064800F078F8284638BD17
:104F2000002384F834302168024800F06FF8F5E778
:104F3000706900089C69000838B5002425460CB14A
:104F4000284638BD04EB0410044B03EB800044609A
:104F5000FFF7D2FF00B105460134F0E788000020DA
:104F60007047704708B50120FCF786FE08BD0000B9
:104F7000F8B50E4614461D46069F4FF400511348DF
:104F8000FDF787FC44B98FB900244FF400510F4856
:104F9000FDF77DFC2046F8BD4FF47A72A1B2304691
:104FA000FDF792F80028EED10424EEE73A46FF21FF
:104FB0002846FBF78FFA4FF47A72B9B22846FDF70C
:104FC000CDF808B10024E0E70424DEE70004024045
:104FD00043680BB10120704710B50446FDF70CF88B
:104FE000064B6362064BA362064BE362002020631C
:104FF000054BA36342F21073E36310BD714F0008C9
:10500000614F0008634F0008654F00080FB404B0FB
:10501000704770B40378302B02D0002422464EE053
:105020004378782B04D0582B02D00024224646E047
:105030008378002B5ED0002502220BE00D6001205A
:1050400025E02D01A3F13006F6B2092E18D8303B29
:105050001D4401320A2A19D8835C002BEED0A3F13B
:105060004104E4B2052CECD9A3F16106F6B2052E99
:10507000E7D9A3F13006F6B2092EE2D9002006E006
:10508000052C01D8373BE3E7573BE1E700200A2A2C
:105090002CD900202AE00C60012025E0A4020C603D
:1050A000012021E0DAB9A3F13005EDB2092D1FD8B6
:1050B00004EB840403EB4403A3F1300401320A2A15
:1050C00011D8835C002BE6D06B2B01D04B2B01D188
:1050D000002AE3D16D2BE5D04D2BE4D1E2E7240586
:1050E0000C60012000E000200A2A05D870BC70473F
:1050F0000020F9E70020F9E70020F7E710B50446A3
:1051000020210548FDF732FE20B1034B9B88237018
:10511000012010BD0020FCE70010014008B5014649
:105120000148FDF7D9F908BD0010014038B5054622
:105130000C462346013C33B12846FFF7DFFF012828
:10514000F7D1002001E04FF0FF3038BD2DE9F043EA
:1051500083B080468946164600230B6011460DF148
:105160000700FFF7E3FF002852D107469DF807200C
:10517000182A13D853B2002B4DD0531E172B4DD8DD
:10518000DFE803F028384C114C4C4C4C4C4C4C4C48
:105190004C4C4C4C4C4C4C4C4C4C4C15412A40D03B
:1051A000612A40D10127384603B0BDE8F08331467B
:1051B0000DF10700FFF7BAFF0746B8BB9DF80730AF
:1051C000182B02D04FF0FF37EDE74FF0FF33C9F84F
:1051D0000030E8E7802588F8002001242B1DA34239
:1051E0000BDB314608EB0400FFF7A0FF08BB0134DE
:1051F000A4B2F3E74FF48065EDE798F8011098F852
:105200000230DB43DBB2994216D1C9F80050CAE73D
:105210004FF0FF37C7E74FF0FF37C4E74FF0FF37D6
:10522000C1E70127BFE74FF0FF37BCE74FF0FF377B
:10523000B9E74FF0FF37B6E74FF0FF37B3E708B5F0
:10524000FFF76CFF002008BD002838D010B50446D9
:105250000378002B35D001462548FBF725FA90B39B
:1052600021462448FBF720FA78B321462248FBF771
:105270001BFA60B321462148FBF716FA48B32146D2
:105280001F48FBF711FA30B321461E48FBF70CFA12
:1052900018B321461C48FBF707FA00B321461B4808
:1052A000FBF702FAE8B121461948FBF7FDF9D0B146
:1052B00021461848FBF7F8F9B8B9012002E00020B0
:1052C0007047002010BD0120FCE70120FAE7012013
:1052D000F8E70120F6E70120F4E70120F2E70120DA
:1052E000F0E70120EEE70120ECE70020EAE700BF4D
:1052F0002C5C0008345C0008385C0008405C000846
:10530000485C0008545C0008605C0008685C0008A9
:10531000705C0008785C000810B584B00446C3785F
:10532000002B00F086800023C0F82034C31CC0F896
:10533000183408E0591CC4F81814511CC4F820147F
:105340001978464B9954D4F818341A781AB1D4F80D
:105350002024FF2AEEDDD4F8201400223F484254D6
:10536000C4F820240133C4F8183409E0511CC4F8EF
:105370001814591CC4F820141278234483F8052407
:10538000D4F818241378202B03D0D4F820340F2B12
:10539000ECDDD4F820345A1CC4F820242344002225
:1053A00083F8052404F5886104F20540FFF731FE17
:1053B000D4F8403402932A4B0193EE230093294BF7
:1053C000294A2A490420FEF781FCD4F84024284BBE
:1053D0009A4213D9274B0193F8230093214B224A79
:1053E00022490120FEF772FC1820FFF728FF182041
:1053F000FFF725FF4FF0FF3004B010BD0020FDF790
:1054000007FD0620FFF71BFF4320FFF718FF1A4B8D
:10541000019340F21D130093124B134A13490420C9
:10542000FEF754FC0020C4F84404012384F84834F7
:10543000E2E70620FFF703FF104B019340F2291328
:105440000093084B084A0E490320FEF73FFC012059
:10545000C4F83004C4F82C04CEE700BF543C00204C
:105460002C6F0008207100080C6F0008485C0008D1
:10547000FEFF0F00406F00085C6F00087C6F0008A3
:10548000405C000830B587B0D0F82854002D2CDDE2
:105490000446D0F84434E918D0F84024914200DDA5
:1054A000D51A2A46E11C0020FDF7CAFC18BB1E4A8B
:1054B00013682B441360D4F844341D44C4F8445496
:1054C000642303FB05F3D4F8402493FBF2F3049325
:1054D00003920295154B01934FF4CB730093144B39
:1054E000144A15490320FEF7F1FB0620FFF7A7FE3B
:1054F000002007B030BD0395D4F8443402930F4B1D
:1055000001934FF4AE730093094B0A4A0A490120F4
:10551000FEF7DCFB1820FFF792FE1820FFF78FFE46
:105520004FF0FF30E5E700BF30370020DC6F0008A8
:10553000387100080C6F0008545C0008A86F000860
:1055400070B5ADF58D6D044604AB9C4A92E803003E
:1055500083E80300CDF86444CDF834440023CDF84B
:105560005834CDF85C34CDF85034CDF84434CDF80F
:105570004C34CDF854348DF86034914A1360029461
:10558000904B019340F2D91300938F4B8F4A90496F
:105590000320FEF79BFB0023CDF84C34CDF84834B4
:1055A000CDF8344487E00023CDF85034DDF84034A2
:1055B000B3F1FF3F22D02BB39DF819609DF84C54F6
:1055C00003950296834B019340F2192300937E4B7F
:1055D0007E4A81490420FEF779FBAE423ED07F4BE4
:1055E000019340F223230093774B784A7A490220B3
:1055F000FEF76CFB1520FFF722FE58E00620FFF7B0
:105600001EFE49E00620FFF71AFE9DF86034012BCC
:1056100012D0002B4BD10123CDF84834CDF84434BF
:105620006F4B019340F206230093674B674A68492A
:105630000320FEF74BFB3AE000238DF86034012392
:10564000CDF84834674B01934FF4FF7300935E4BE2
:105650005E4A5F490420FEF739FB28E09DF860248C
:1056600004AB53F8223006A898470546B0F1FF3F37
:1056700012D001281BD0DDF84C340133CDF84C3466
:105680000123CDF8543412E01820FFF7D8FD18207C
:10569000FFF7D5FD6FF0020528460DF58D6D70BD45
:1056A000DDF85034032B2BDC4320FFF7C8FDDDF879
:1056B0004834002B37D14FF480120DF5886106A8CD
:1056C000FFF744FD054600283FF46DAF0128DBD00D
:1056D000DDF85434002BE3DDDDF850340133CDF830
:1056E00050340322039202933F4B01934FF4137300
:1056F0000093354B354A3D490220FEF7E7FACFE7E4
:105700003B4B019340F2512300932F4B2F4A3749D3
:105710000120FEF7DBFA1820FFF791FD1820FFF7B4
:105720008EFD0025B8E7DDF84424CAB9002B3FF40C
:1057300032AF002A7FF42FAF4320FFF780FD002314
:10574000CDF84834CDF850342A4B019340F27223FF
:1057500000931D4B1D4A1E490420FEF7B7FA1AE7B5
:105760002548FFF771FD30B90020FDF7BFFB88B970
:10577000DDF85C5490E7DDF85C3402931F4B019335
:1057800040F277230093104B104A1B490320FEF789
:105790009DFAE9E71848FFF757FD10B96FF00105CA
:1057A0007AE7174B019340F281230093064B074A97
:1057B00011490120FEF78AFAF0E700BF245C0008D7
:1057C00030370020FC6F0008507100080C6F000893
:1057D000405C000848700008605C000860700008C9
:1057E0007C6F00082070000880700008685C00086A
:1057F0009C700008B4700008705C0008DC70000841
:10580000F870000800238B420ED230B4C25C02F064
:105810000F0502F0F002054C2244525DC2540133E0
:105820008B42F3D330BC7047704700BF70720008E2
:1058300000238B420ED230B4C25C02F00F0502F09E
:10584000F002054C2244525DC25401338B42F3D323
:1058500030BC7047704700BF70710008531EDBB248
:10586000092B0ED870B485B0002393420AD201EB05
:105870008304055D04AC1C4404F80C5C0133DBB20A
:10588000F3E77047002308E09C1801EB840401EB68
:105890008305045D44550133DBB2C2F10405AB421C
:1058A000F2DB002309E0EC1801EB840404AE1E4493
:1058B00016F80C6C06550133DBB29342F3D305B0F6
:1058C00070BC704710B5044603220121FFF7C6FFE4
:1058D000022211462046FFF7C1FF01220321204684
:1058E000FFF7BCFF10BD10B40446002210460AE0CA
:1058F00063005BB214F0800F0CD100246340DCB273
:1059000049080132D2B2072A06D811F0010FEFD0B0
:105910006040EDE71B24F1E75DF8044B70472DE98B
:10592000F04782B0064600256DE056F825705FFA14
:1059300087FA0E215046FFF7D6FF0446C7F3072922
:105940000B214846FFF7CFFF4440E4B2C7F30748B6
:105950000D214046FFF7C7FF4440E4B23F0E092146
:105960003846FFF7C0FF44408DF8044009215046F7
:10597000FFF7B9FF04460E214846FFF7B4FF444045
:10598000E4B20B214046FFF7AEFF4440E4B20D21E4
:105990003846FFF7A8FF44408DF805400D215046DA
:1059A000FFF7A1FF044609214846FFF79CFF44404A
:1059B000E4B20E214046FFF796FF4440E4B20B21CB
:1059C0003846FFF790FF44408DF806400B215046C3
:1059D000FFF789FF04460D214846FFF784FF444046
:1059E000E4B209214046FFF77EFF4440E4B20E21B5
:1059F0003846FFF778FF44408DF80740019B46F892
:105A000025300135EDB2032D8FD902B0BDE8F08706
:105A100038B504460D460278034633F8011F9B78DB
:105A200001808370C2700421FFF7ECFE024B5B5DC6
:105A300022785340237038BD6071000810B4541EA2
:105A40003AB111F8013B0278534000F8013B22467D
:105A5000F5E75DF8044B70472DE9F04383B0074646
:105A60000D46102906D018290BD020290CD003B0E0
:105A7000BDE8F0834FF00A082B1FFB580093002469
:105A80001BE04FF00C08F7E74FF00E08F4E7B4FB0B
:105A9000F1F16846FFF7BCFF4FEA860957F8263058
:105AA000019304220DEB02016846FFF7C7FFA944EA
:105AB000009B47F809300134E4B22646B5F11002E4
:105AC00017D44FEA4803A3EBE203B6EB430FCEDA59
:105AD000A908B4FBF1F301FB134313F0FF03D6D085
:105AE000042BD9D1202DD7D104216846FFF78AFE97
:105AF000D2E70732E5E7000038B50C46054D0A4607
